:020000040800F2
:1000000038060020A1010008F92C0008C1290008C9
:10001000A92C0008750B0008CD3200080000000074
:100020000000000000000000000000000F2D00088C
:10003000290C0008000000000D2D0008112D0008FB
:10004000BB010008BB010008BB010008BB010008A0
:10005000BB010008BB010008BB010008BB01000890
:10006000BB010008BB010008BB010008BB01000880
:10007000BB010008BB010008BB010008BB01000870
:10008000BB010008BB010008BB010008BB01000860
:10009000BB010008BB010008BB010008BB01000850
:1000A000BB010008BB010008BB010008B92D000816
:1000B000C52D0008BB010008BB010008BB010008FA
:1000C000BB010008BB010008BB010008BB01000820
:1000D000BB010008BB010008BB010008BB01000810
:1000E000BB010008BB010008BB010008BB01000800
:1000F000BB010008BB010008BB010008BB010008F0
:10010000BB010008BB010008BB010008BB010008DF
:10011000BB010008BB010008D12D0008BB0100088D
:10012000BB010008BB010008BB010008BB010008BF
:10013000790B0008BB010008BB010008BB010008E7
:10014000BB010008BB010008BB010008BB0100089F
:10015000BB010008BB010008BB010008BB0100088F
:10016000BB010008BB010008BB010008BB0100087F
:10017000BB010008BB010008BB0100080000000033
:10018000BB010008BB010008DFF810D000F05EFAE8
:1001900000480047E93B0008AFF300803806002024
:1001A0000648804706480047FEE7FEE7FEE7FEE711
:1001B000FEE7FEE7FEE7FEE7FEE7FEE7A92D000803
:1001C000890100082DE9F05F0546002092469B4614
:1001D00088460646814640241BE02846414647465D
:1001E000224600F06AF853465A46C01A914110D38D
:1001F00011461846224600F051F82D1A67EB010807
:100200004F4622460120002100F048F817EB000974
:100210004E41201EA4F10104DFDC484631462A4647
:100220004346BDE8F09FD2B201E000F8012B491E21
:10023000FBD270470022F6E710B513460A46044683
:100240001946FFF7F0FF204610BD00F0004230F0E5
:1002500000400AD0C10D01F56071C0F3160042EAFA
:100260000151C20840071143704700200146704702
:1002700030B50B46014600202022012409E021FA76
:1002800002F59D4205D303FA02F5491B04FA02F573
:100290002844151EA2F10102F1DC30BD202A04DB46
:1002A000203A00FA02F1002070479140C2F1200389
:1002B00020FA03F3194390407047202A04DB203AC8
:1002C00021FA02F00021704721FA02F3D040C2F176
:1002D000200291400843194670472DE9FE4F8046A1
:1002E00081EA0300C00F0C46009021F0004123F08A
:1002F0000045B8EB0200A94105D240462146904690
:100300001C460B46024623F00040104347D0270D01
:10031000C7F30A00C3F30A510290401A0190402823
:100320006BDAC3F3130040F4801B0098924620B1AF
:100330000023D2EB030A63EB0B0B01985946C0F183
:1003400040025046FFF7AAFF06460D465046594662
:10035000019A00F08DF910EB08006141002487EA52
:10036000115284EAE7731A4340D0009A62B3019AAB
:10037000012A4FEA075215DC001B61EB02014FF026
:10038000004202EA0752CDE90042001C41F580110B
:1003900032462B4600F08DF903B0BDE8F08F4046A1
:1003A0002146F9E7001B61EB0201001C41F58013B7
:1003B00000185B412018A2F5001747EB030140EA43
:1003C000D570B6196D4111E06D084FEA360645EA61
:1003D000C0754FEA0752001B61EB0201001C41F59A
:1003E000801149084FEA30000019514132462B462E
:1003F00003B0BDE8F04F00F04DB900980122400075
:100400000023D0EB020263EBE073009821464FEA31
:10041000E074B8EB000061EB0401E9E783F000430E
:100420005BE781F0004158E72DE9FE4F81EA0304C4
:1004300004F0004421F0004100944FF0000B23F041
:10044000004350EA01045ED052EA03045BD0C3F3D8
:100450000A54C1F30A552C44A4F2F3340194A0FBCE
:100460000254C1F3130141F48011C3F3130343F4A5
:10047000801301FB024400FB034E840A970A44EAFE
:10048000815447EA8357A4FB076802958D0A05FB50
:1004900007854FEA932C04FB0C542705029D4FEA75
:1004A000065847EA1637B5EB08056EEB070C870EC2
:1004B000920E47EA811742EA8312A7FB0201B6EBCC
:1004C0000B0164EB00042B0D43EA0C335E1844EB84
:1004D0001C50DA465146E7FB0201C5F313044FEA0C
:1004E0000B3343EA14534FEA0432019C43EA0603F8
:1004F000A4F10C040294009CCDE900B400F0D9F8FA
:1005000003B0BDE8F08F00200146F9E72DE9F04D7A
:1005100081EA030404F0004B21F0004514464FF03B
:10052000000A23F0004150EA050220D054EA0102FB
:100530001DD0C5F30A570246C5F31303C1F31300D8
:10054000C1F30A5640F4801543F48013A7EB060864
:10055000101BD64608F2FD3873EB050002D308F1F4
:10056000010801E092185B41B8F1000F03DA0020A6
:100570000146BDE8F08D00204FF480110646844608
:100580000EE0171B73EB050705D3121B63EB050386
:1005900006434CEA010C49084FEA300092185B41CF
:1005A00050EA0107EDD152EA030012D082EA0400BA
:1005B00083EA0501084305D0101BAB4106D2012296
:1005C000002306E000224FF0004302E06FF001023A
:1005D00053101AEB06004CEB085110EB0A0041EBEC
:1005E0000B01BDE8F04D00F055B8C1F30A52C1F35C
:1005F000130140F2FF3341F480119A4202DA0020E5
:100600000146704740F233439A42A2F2334202DC81
:100610005242FFF752BEFFF741BE000030B5041E44
:1006200071F1000404DB4FF00044404264EB01012F
:10063000141E73F1000405DB1C464FF000435242C8
:1006400063EB0403994208BF904230BD064C074D4E
:1006500006E0E06840F0010394E807009847103492
:10066000AC42F6D3FFF794FD5445000874450008EA
:10067000202A06DBCB17203A41FA02F043EAE07366
:1006800006E041FA02F3D040C2F120029140084353
:100690001946704710B5141E73F1000408DA401CA7
:1006A00041F1000192185B411A4301D120F0010091
:1006B00010BD2DE9F04D92469B4611B1B1FA81F281
:1006C00002E0B0FA80F220329046FFF7E7FD0446E0
:1006D0000F4640EA0A0041EA0B0153465A460843D6
:1006E00013D0114653EA010019D0C8F14002504618
:1006F000FFF7E3FD05460E46504659464246FFF7D2
:10070000CDFD084305D0012004E020463946BDE870
:10071000F08D0020054346EAE0762C4337430A98E3
:100720006305E40AA0EB08000022FD0A44EA4754EE
:100730000A3002D500200146E9E701051019694198
:10074000DDE9084500196941BDE8F04DA2E7000068
:100750009FED201A9FED202A20EE010ABDEEC01A5F
:1007600011EE100AB5EE400AF1EE10FAB8BF0138EA
:1007700001EE100AB8EEC11A30EE410A20EE020A6C
:10078000BDEEC01A9FED152A11EE100A002130EEC1
:10079000021AB1EB502F43F650511CBF0020B0EEAF
:1007A000410AC0F6000101EE100A01EB8001B8EE2B
:1007B000411A30EE410A91ED001A91ED012AB7EE8F
:1007C000003A33EE403A23EE011A20EE020A31EEEF
:1007D000000A704783F9223E00000044000000C474
:1007E00010B50146806B026C12F0500F05D0026C00
:1007F000D20626D500F0DCFA10BD016C41F4007180
:10080000016401688A6812F0405F17D1027EAAB9BC
:10081000CA6A12F4700F02D08A6852050ED44A6870
:1008200022F020024A60016C21F480710164016CA5
:10083000C90403D4016C41F00101016400F0B6FA6F
:1008400010BD806BC26CBDE810400846104710B563
:10085000806B40210164416C41F00401416400F06F
:10086000A7FA10BD10B5806B00F0A1FA10BD000012
:10087000464910B54A6822F440324A604A684368E3
:100880001A434A6001684A6822F480724A6001682B
:100890004A68036942EA03224A6001684A6822F012
:1008A00040724A6001684A6883681A434A60016876
:1008B0008A6822F400628A6001688A68C3681A4301
:1008C0008A60816A6FF07062D14201688A6822F0A2
:1008D00070628A6001688A680CD0836A1A438A60F1
:1008E00001688A6822F040528A6001688A68C36A97
:1008F0001A4301E022F040528A6001688A6822F0BF
:1009000002028A6001688A68037E42EA43028A60C2
:1009100090F82010002901684A680FD042F4006264
:100920004A6001684A6822F460424A6001684A6885
:10093000174C436A04EB43331A4301E022F400628C
:100940004A600168CA6A22F47002CA620168CA6A0F
:10095000838B104C04EB03531A43CA6201688A6804
:1009600022F400728A6001688A6890F8303042EAA6
:1009700043228A6001688A6822F480628A60016882
:100980008A68406942EA8020886010BD00230140E7
:1009900000E0FFFF0000F0FF70B556492DED028B1F
:1009A0000978012901D180F00700534CDFED530A8B
:1009B00041F26905072820EE200ABCEEC08A73D2F6
:1009C000DFE800F0957344601604320008214A48BD
:1009D00001F086FE0821484801F0DAFA216818EE95
:1009E000100A88630421444801F016FE042110E037
:1009F0000421414801F074FE04213F4801F0C8FA87
:100A0000216818EE100AC86308213B4801F004FE73
:100A10000821394801F0BCFA2068456300213648B6
:100A200001F05EFE00215BE00021334801F058FE3A
:100A30000021314801F0ACFA216818EE100AC863B1
:100A400008212D4801F0E8FD082110E008212A487E
:100A500001F046FE0821284801F09AFA216818EEB4
:100A6000100A48630021244801F0D6FD00212248E5
:100A700001F08EFA2068856304211F4801F030FEE2
:100A800004212DE004211C4801F02AFE04211A480B
:100A900001F07EFA216818EE100A4863002116481A
:100AA00001F0BAFD002111E021E00021124801F01F
:100AB00017FE0021104801F06BFA216818EE100AA9
:100AC000886304210C4801F0A7FD04210A4801F0C5
:100AD0005FFA2068C5630821074801F001FE08217C
:100AE000BDEC028B0448BDE8704001F0F1B9BDECEB
:100AF000028B70BD180000200001002000408345DB
:100B000070B51A4C00202168486321688863216809
:100B1000C8630146204601F07FFD0421204601F014
:100B20007BFD0821204601F077FD0021204601F0E1
:100B3000CFF90421204601F0CBF90821204601F02D
:100B4000C7F92021204601F067FB20686FF02005DF
:100B5000056101F017FF9FED060AFFF71DFF202139
:100B6000204601F059FB2068056170BD000100209E
:100B7000CDCC4C3EFEE70000014800F03DBA00003D
:100B8000A000002001681823CAB2103AB2FBF3F2A9
:100B9000054B6FF30901032A9B5CC36500D9091D4E
:100BA0008165084670470000263D000810B50146E3
:100BB00000208B698A6A4FF0C07453B1B3F5005FAF
:100BC00015D072B1012A0CD0022A0AD0032A09D109
:100BD00004E01AB1012A06D0022A03D1C96AC90168
:100BE00000D5012010BDC96AA142FAD010BD002A6B
:100BF000F7D0012AF2D0022AF3D0032AF3D010BD95
:100C000030B50468256825F4802525600468636094
:100C10008368402B036803D099600068C26030BDD0
:100C20009A600068C16030BD704772B6FEE7000090
:100C300009489FED080A4169002909D000EE101A01
:100C40009FED061A0021F8EE400A416181EE200A6C
:100C500070470000000000001C02002000247449BE
:100C600078B50024009490F83C20012A19D0012284
:100C700080F83C200A6807230568092A13D9EE6822
:100C80000A3A02EB420293409E43EE600B788A6878
:100C90000A3B03EB43039A400368DD682A43DA60AA
:100CA00010E0022078BD2E6902EB420293409E4381
:100CB0002E610B788A6803EB43039A4003681D6931
:100CC0002A431A614A681F23072A13D205686E6BEC
:100CD000521E02EB820293409E436E630B790A8898
:100CE0005B1E92B203EB83039A4003685D6B2A4359
:100CF0005A6327E005680D2A12D22E6BD21F02EB31
:100D0000820293409E432E630B790A88DB1F92B2C6
:100D100003EB83039A4003681D6B2A431A6311E0B7
:100D2000EE6A0D3A02EB820293409E43EE620B792B
:100D30000A880D3B92B203EB83039A400368DD6A95
:100D40002A43DA62164B0568144A9D4206D10D68A3
:100D5000122D03D1556845F48005556005689D4204
:100D600018D10B68102B01D0112B13D1536843F409
:100D700000035360096810290CD10A490A4A09681E
:100D8000B1FBF2F101EB8101490000E0491E009145
:100D90000029FBD180F83C40002078BD00230140B1
:100DA000002001401000002040420F0070477047B3
:100DB000704770B504004FF0000503D0206C00268A
:100DC00010B107E0012070BD204600F01DF86664F8
:100DD00084F83C60206CC00610D4206C20F488504D
:100DE00040F0020020642046FFF742FD6664206C5C
:100DF00020F0020040F00100206400E0012584F8AA
:100E00003C60284670BD000070B586B006461421CF
:100E10006846FFF70FFA1E493068884235D11D48F1
:100E20000025016841F480710160006800F4807061
:100E3000059018481438016841F00101016000680C
:100E4000694600F001000590782000900320CDE96C
:100E50000105114800F042FA114C1048C4E90005A0
:100E60000015A560C4E90350400060618000A061E6
:100E70004011E0614002C4E90805204600F08CF909
:100E800008B1FFF7D2FEB463A66306B070BD0000E0
:100E900000200140443802400000024070640240DB
:100EA000A0000020F8B5044600200E46009094F8FB
:100EB0003C10012907D0012184F83C1021688B687F
:100EC000DB0702D011E00220F8BD8B6843F001037C
:100ED0008B604049404B0968B1FBF3F101EB4101E4
:100EE00000E0491E00910029FBD121688B68DB05D9
:100EF00003D58B6823F480738B6021688B68DB07D4
:100F00005DD0236C40F20165AB4343F480732364EE
:100F10004968490505D5216C21F4005141F48051FF
:100F20002164216CC90404D5616C21F0060161645F
:100F300000E0606484F83C00A16B2948274DC86339
:100F4000A16B28480864A16B2748C86421686FF02A
:100F5000220008602068416841F08061416020689B
:100F6000816841F4807181602168134632464C31BA
:100F7000A06B00F07BF968681C49C006206806D0A9
:100F8000884224D1816811F0405F13D01FE088426D
:100F9000F8D0174A904203D1D1F80423D206F1D0F9
:100FA000144A904213D1D1F8041301F01F01102903
:100FB000E8D30CE0816841F08041816007E0206C5B
:100FC00040F010002064606C40F00100606400207C
:100FD000F8BD00001000002040420F000023014037
:100FE000E1070008650800084F08000800200140DC
:100FF00000210140002201402DE9F84304464FF052
:101000000009CDF8009063484FF41651A56D0068B3
:10101000B0FBF1F72E6894F85C10082000FA01F19B
:1010200031420FD021680A6852070BD50A6822F0B6
:1010300004020A6094F85C108840A860606D40F07B
:101040000100606594F85C104FF0010808FA01F0A7
:10105000304208D021684969090604D5A860606D4E
:1010600040F00200606594F85C1004208840304233
:1010700008D021680968890704D5A860606D40F030
:101080000400606594F85C1010208840304218D04D
:1010900021680968090714D5A86020680168490318
:1010A00004D50068000308D5A16C07E00168C905F4
:1010B00003D4016821F008010160216C09B12046C8
:1010C000884794F85C1020208840304231D0216855
:1010D0000968C9062DD5A86094F835000528206850
:1010E000016806D0490347D5006800031DD4616C30
:1010F0001CE021F0160101602068416921F08001A7
:101100004161206C08B9A06C20B12068016821F011
:101110000801016094F85C103F208840A86084F8C2
:10112000358084F83490216D1FE0E16B09B12046D1
:101130008847606D00282BD0606DC00714D0052053
:1011400084F835002068016821F0010101600098F1
:10115000401C0090B84203D820680068C007F6D150
:1011600084F8358084F83490E16C002910D001B007
:101170002046BDE8F04308470168C905D5D4016899
:1011800021F01001016084F8358084F83490CCE7B8
:10119000BDE8F883100000202DE9F041044600F07E
:1011A0009BF906465CB1022084F83500002584F8DE
:1011B00034502068016821F0010101600DE0012038
:1011C000BDE8F08100F088F9801B052805D92020B2
:1011D0006065032084F83500F2E720680068C007E6
:1011E000F0D12268116820480140D4E90103184376
:1011F000D4E903363343184363691843A36918439A
:10120000E3691843236A18430843616A042903D138
:10121000D4E90B1319430843106020684069666ADB
:1012200020F0070130460E43012704280CD1A06AA4
:101230000643E06A40B12046FFF7B8FC20B14020E9
:10124000606584F83570BAE7206846612046FFF78C
:1012500099FC94F85C203F2191408160656584F899
:1012600035700020ACE700003F8010F02DE9F04120
:101270000446866D90F83400002501280DD0012029
:1012800084F8340094F835700020012F07D084F8DA
:10129000340002252846BDE8F0810220FBE7022742
:1012A00084F8357060652046FFF7AAFC94F85C105E
:1012B0003F208840B0602068016841F0160101605D
:1012C000206C20B12068016841F0080101602068AD
:1012D000016841F001010160DCE700002DE9F84FF1
:1012E000DFF8BCA10022012503264FF00F090AF107
:1012F000040BAAF1040E00BF0B6805FA02F42340A8
:10130000A34270D10F7907F00307012F01D0022FFC
:1013100016D187684FEA420806FA08FC27EA0C074C
:10132000D1F80CC00CFA08FC4CEA070CC0F808C055
:101330004768A7430C79C4F3001494403C434460CD
:101340000C79E443A4070AD0C4684FEA420C06FAB9
:101350000CF7BC438F6807FA0CF72743C7600C797A
:1013600004F00304022C12D1D40800EB840CDCF846
:1013700020405707FF0E09FA07F824EA0804D1F8BD
:10138000108008FA07F848EA0408CCF820800468BE
:101390004FEA420C06FA0CF7BC430F7907F003073B
:1013A00007FA0CF7274307604C6814F4403F70D0ED
:1013B0003C4C276847F480472760246822F00307E5
:1013C00004F480440094384C07EB040CDCF8084823
:1013D00097074FEA177809FA08F7BC43334FB8422A
:1013E00002D1002724E054E0314FB84201D1012757
:1013F0001EE0304FB84201D1022719E02E4FB8420B
:1014000001D1032714E02D4FB84201D104270FE08A
:101410002B4FB84201D105270AE02A4FB84201D12B
:10142000062705E0284FB84201D1072700E008272A
:1014300007FA08F72743CCF80878DAF8004057464F
:10144000D1F804C09C435FEACC2C00D51C433C601F
:10145000DBF800405F46D1F804C09C435FEA8C2C67
:1014600000D51C433C60DEF800407746D1F804C04C
:101470009C435FEA8C3C00D51C433C60084F083F0E
:101480003C68D1F804C09C435FEACC3C00D51C43C7
:101490003C60521C102AFFF42FAFBDE8F88F00000B
:1014A000083C014044380240003001400000024046
:1014B0000004024000080240000C024000100240FC
:1014C0000014024000180240001C0240006908405D
:1014D00000D001207047000001488068704700007C
:1014E000040000200248816802781144816070473E
:1014F000040000200B4810B5016841F40071016040
:10150000016841F480610160016841F4807101600B
:10151000032000F06FF80F2000F006F800F024F828
:10152000002010BD003C024070B50D4D04464FF444
:101530007A712878B1FBF0F00A490968B1FBF0F044
:1015400000F00AFB48B9102C07D200222146501E99
:1015500000F030F800206C6070BD012070BD00000C
:1015600004000020100000200A4808B5016841F47A
:1015700080410160006800F4804000900548001F31
:10158000016841F080510160006800F080500090D7
:1015900008BD000044380240002809DB00F01F02AB
:1015A000012191404009800000F1E020C0F80011C5
:1015B00070470000F0B40E4B1B680C46C3F30223C7
:1015C000C3F10705042D00D90425191D072901D2EF
:1015D000002300E0DB1E012606FA05F1491E21402A
:1015E00099409E40761E16403143F0BC01F080BE0B
:1015F0000CED00E0064900F0070208684FF6FF0313
:10160000184040EA0220034A104308607047000077
:101610000CED00E00000FA052DE9F0470E4605004C
:1016200065D0DFF81481D8F80000F7B200F00700A9
:10163000B04207D288F80070D8F8000000F0070028
:10164000B04254D128683D4C810712D5400703D5DC
:10165000206840F4E05020602878000703D5206817
:1016600040F4604020602068A96820F0F000084342
:1016700020602878C0072DD03049686808390128D3
:1016800012D0022813D0032811D009688907002935
:101690002DDA216821F0030101432160FFF71CFFCF
:1016A000814641F2883A0EE009688903EFE709684C
:1016B0008901ECE7FFF710FFA0EB0901514502D9C2
:1016C0000320BDE8F0872068696800F00C00B0EBEB
:1016D000810FEFD1D8F80010404601F00701B14268
:1016E00007D90770006800F00700B04201D0012060
:1016F000E7E72878400705D52068E96820F4E0503E
:10170000084320602878000706D52068296920F45E
:10171000604040EAC100206000F038F82168084AC3
:10172000C1F30311515CC8400649086006480068CF
:10173000FFF7FAFE0020C4E7003C024008380240F0
:101740002E3D000810000020080000200448054934
:1017500000680968044AC1F38221515CC84070479F
:1017600010000020083802403E3D000804480549AA
:1017700000680968044AC1F34231515CC8407047AF
:1017800010000020083802403E3D0008154810B502
:10179000006810F00C02144813D04110042A0FD036
:1017A000082A0ED10F4C241F2268236802F03F0242
:1017B0005B0207D52068C0F38810A0FB010106E09A
:1017C000084610BD2168C1F38811A1FB0001002368
:1017D000FEF7F8FC2168C1F30141491C4900B0FB48
:1017E000F1F010BD083802400024F4002DE9F84F54
:1017F00004006ED02078DFF84C93C007A9F10405EF
:101800004AD009F104000168C1F38101012908D01F
:101810000068C0F3810002280AD1D9F80000400214
:1018200006D52868800337D560680028E1D033E00A
:101830006068B0F5803F10D0B0F5A02F286810D0B8
:1018400020F480302860286820F4802028606068B8
:10185000A8B1FFF741FE06460DE0286840F480304D
:10186000F4E740F480202860F7E700BFFFF734FE7C
:10187000801B642873D828688003F7D50CE0FFF735
:101880002BFE064605E000BFFFF726FE801B6428FE
:10189000F0D828688003F7D42078DFF8AC8280077E
:1018A0004FF0000A3ED5A748001D016811F00C0F4B
:1018B00008D00068C0F3810002280BD1D9F80000DD
:1018C000400207D42868800716D5E068012800D1B7
:1018D00012E033E1E068B8B10120C8F80000FFF77A
:1018E000FBFD064605E000BFFFF7F6FD801B022862
:1018F000C0D828688007F7D52868216920F0F8004B
:1019000040EAC10028600DE0C8F800A0FFF7E4FD40
:10191000064604E0FFF7E0FD801B02281FD8286878
:101920008007F7D42078000722D5864F8748616961
:10193000703771B101210160FFF7CEFD064604E06A
:10194000FFF7CAFD801B022809D838688007F7D541
:101950000EE0C0F800A0FFF7BFFD064605E082E0FC
:10196000FFF7BAFD801B02287DD838688007F7D4BE
:101970002078400768D5DFF8CCB100270BF13C0B8D
:10198000DBF80000C0000BD4DBF8001041F0805100
:10199000CBF80010DBF80000012700F08050009029
:1019A0006B4E3068C00510D4306840F480703060F1
:1019B000FFF792FD009005E0FFF78EFD0099401AB9
:1019C000022850D83068C005F6D55E4EA0686C3647
:1019D00001280FD00528306810D020F001003060B9
:1019E000306820F004003060A068B8B1FFF774FDE3
:1019F00000900FE0306840F00100F4E740F0040090
:101A00003060F7E7FFF768FD0099411A41F288302E
:101A1000814266D830688007F4D50EE0FFF75CFDA0
:101A2000009007E0FFF758FD0099411A41F2883015
:101A3000814256D830688007F4D42FB1DBF800100B
:101A400021F08051CBF80010A069C8B33D49091DB1
:101A50000968C1F3810102294AD00228504607D003
:101A6000C8F8600000E03CE0FFF736FD04463BE0CC
:101A70004746C8F86000FFF72FFD064605E000BFA7
:101A8000FFF72AFD801B02282BD828688001F7D495
:101A9000D4E907010843A16A2E4A490802EB014133
:101AA000626A41EA8211084394F82C1040EA01610D
:101AB000C9F8001001203866FFF70EFD044606E065
:101AC0003EE000BFFFF708FD001B022809D8286888
:101AD0008001F7D534E000BFFFF7FEFC001B0228B1
:101AE00002D90320BDE8F88F28688001F4D427E0EC
:101AF0000128F7D0D9F80000E26900F48001914292
:101B00001CD1226A00F03F01914217D147F6C07103
:101B1000626A0140B1EB821F10D1A26A4FF0FF331D
:101B200000F4403103EB5202B1EB024F06D194F8BE
:101B30002C1000F07060B0EB016F01D00120D1E7F4
:101B40000020CFE70438024000004742800E4742A1
:101B5000007000400000FFFF10B5401EB0F1807F14
:101B600001D3012010BD4FF0E02460610F21601708
:101B700001F0BEFB0020A06107202061002010BD05
:101B80007047704710B590F83C20012A22D00122FE
:101B900080F83C20CA688C6822F4407222434C686A
:101BA00022F4806222430C6822F4006222430C6912
:101BB00022F4805222434C6922F400522243C96924
:101BC000002322F480420A4301684A6480F83C30D2
:101BD000002010BD022010BD10B590F83C30012B44
:101BE0000AD0012380F83C3041B1102906D02029C9
:101BF00004D0302902D00AE0022010BD03689C689E
:101C000024F070049C6003689C680C439C6001682D
:101C10004B6843F001034B6001684B6823F00403F9
:101C20004B6001684B6813434B600168CA6822F03F
:101C30002002CA600168CA6822F40052CA6000210A
:101C400080F83C10084610BD70B588B00E46040000
:101C500004D094F83D00002518B107E0012008B039
:101C600070BD84F83C50204600F056F8022084F8FD
:101C70003D00211D206801F0B1F8B36831680322EE
:101C8000206801F00FFA2068816921F00C01816160
:101C9000206881697268114381612068416841F060
:101CA000800141602068816821F0700181602068B6
:101CB000816841F0400181602068816821F007015E
:101CC00081602068816841F0040181607020059581
:101CD00004950695039502950090F0680190694679
:101CE000206801F03BF92068416821F070014160F3
:101CF0002068416841F050014160012084F84600AD
:101D000084F83E0084F83F0084F8420084F84300E1
:101D100084F83D000020A2E710B586B004461421E7
:101D20006846FEF787FA2068B0F1804F27D1154842
:101D30000021026842F001020260006800F0010028
:101D4000059010481038026842F0010202600068F5
:101D500000F001000590072000900220CDE901016C
:101D60000120CDE9031069460748FFF7B7FA0022C2
:101D700011461C20FFF71EFC1C20FFF70DFC06B0CF
:101D800010BD0000403802400000024010B590F83D
:101D90003E30044690F83F2090F8421090F84300FF
:101DA000012B05D1012A03D1012901D1012801D03C
:101DB000012010BD022084F83E0084F83F0084F822
:101DC000420084F843002068C16841F00201C1600C
:101DD00001220021206801F065F81249206888423C
:101DE00014D0B0F1804F11D00F4988420ED00F4966
:101DF00088420BD00E49884208D00E49884205D04F
:101E00000D49884202D00D49884204D1816801F011
:101E10000701062903D0016841F00101016000209B
:101E200010BD000000000140000400400008004018
:101E3000000C004000040140004001400018004038
:101E400070B590F83C20012A32D0012480F83C4043
:101E5000022280F83D2003685A689D6822F07006CF
:101E60000A6832435A60134B02689A4214D0B2F1A6
:101E7000804F11D0104B9A420ED0104B9A420BD08B
:101E80000F4B9A4208D00F4B9A4205D00E4B9A4204
:101E900002D00E4B9A4204D1496825F080031943C1
:101EA000916080F83D40002180F83C10084670BDEC
:101EB000022070BD00000140000400400008004006
:101EC000000C0040000401400040014000180040A8
:101ED00010B50446022249B104290ED0082913D0B6
:101EE00094F84500012816D0012010BD94F8420056
:101EF0000128F9D184F842200FE094F8430001282A
:101F0000F2D184F8432008E094F844000128EBD192
:101F100084F8442001E084F845200422206800F081
:101F2000CEFF2068416C41F40041416411492068B2
:101F3000884214D0B0F1804F11D00F4988420ED0A2
:101F40000E4988420BD00E49884208D00D4988427C
:101F500005D00D49884202D00C49884204D18168DD
:101F600001F00701062903D0016841F00101016079
:101F7000002010BD000001400004004000080040A7
:101F8000000C0040000401400040014000180040E7
:101F900070B504460D460068002200F090FF2068EE
:101FA000036A41F211110B4240F2444206D1036A26
:101FB000134203D1436C23F4004343642068036A53
:101FC0000B4206D1016A114203D1016821F00101DF
:101FD000016001203DB1042D08D0082D09D084F8FE
:101FE0004500002070BD84F84200FAE784F8430001
:101FF000F7E784F84400F4E710B5040003D094F840
:102000003D0010B107E0012010BD002084F83C0025
:10201000204600F01FF8022084F83D00211D2068B2
:1020200000F0DCFE012084F8460084F83E0084F8CD
:102030003F0084F8400084F8410084F8420084F8AE
:10204000430084F8440084F8450084F83D000020F3
:1020500010BD000008B50068154988420FD1154829
:10206000016841F0010101600068002200F00100F8
:10207000009011461B20FFF79DFA1B2012E00E492D
:10208000884213D10B48001F016841F01001016024
:102090000068002200F01000009011463620FFF783
:1020A00089FA3620BDE80840FFF776BA08BD00007F
:1020B00000000140443802400010004090F83D10FC
:1020C000012901D001207047022180F83D100168EC
:1020D000CA6842F00102CA6000681149884214D0FF
:1020E000B0F1804F11D00F4988420ED00E4988427E
:1020F0000BD00E49884208D00D49884205D00D49C1
:10210000884202D00C49884204D1816801F007015D
:10211000062903D0016841F00101016000207047E9
:10212000000001400004004000080040000C004096
:1021300000040140004001400018004070B5044612
:1021400090F83C000025012817D0012684F83C6057
:10215000022084F83D002068826822F0770222F491
:102160007F4282600868502838D00DDC20284FD08C
:1021700005DC90B3102811D14AE0022070BD302850
:1021800046D040280AD13BE060282FD070280DD0DF
:10219000B0F5805F03D0B0F5005F12D0012584F860
:1021A0003D60002084F83C00284670BDCB68D1E932
:1021B0000121206800F090FE2068816841F07701DD
:1021C00009E0CB68D1E90121206800F085FE206894
:1021D000816841F480418160E1E719E0CA6849689B
:1021E000206800F04DFF5021206806E0CA68496869
:1021F000206800F097FF6021206800F077FECEE7AE
:10220000CA684968206800F03BFF40212068F4E775
:10221000226801461046F0E790F83C20012A0CD0D5
:10222000012200F83C2F0223437050F83C3C5961D6
:10223000427000210170084670470220704700007C
:1022400070B5064600F09EFB1E4C054694ED030A51
:10225000FEF7A2FB3068406BA1690022C1EB01418F
:102260000844C4E90502FEF7E3FCD4ED020A9FED41
:10227000161A60EE810A9FED151A40EE010AC4EDB0
:10228000010A94ED000AB5EEC00AF1EE10FA02D38D
:10229000B0EE600A03E0B1EE600A84ED010A0C487A
:1022A00084ED020A0C49435D0A48B0F90040A3429C
:1022B00000D101220A700580BDE870402021074846
:1022C000FFF7AABF1C020020CCCC4C3ECDCC4C3F2B
:1022D000463D0008140000201900002000010020E5
:1022E00070B50446006801694FF00005C9438907CD
:1022F00015D4C168C943890711D4E91E01610120C1
:102300002077206880698007204602D0FFF798FF79
:1023100004E000F0EBF8204600F07DF92577206816
:102320000169C943490717D4C168C943490713D490
:102330006FF004010161022020772068806910F4A9
:10234000407F204602D0FFF77BFF04E000F0CEF88C
:10235000204600F060F9257720680169C943090724
:1023600016D4C168C943090712D46FF0080101618E
:10237000042020772068C0698007204602D0FFF73C
:102380005FFF04E000F0B2F8204600F044F9257742
:1023900020680169C943C90617D4C168C943C90681
:1023A00013D46FF010010161082020772068C06904
:1023B00010F4407F204602D0FFF742FF04E000F017
:1023C00095F8204600F027F9257720680169C94370
:1023D000C90708D1C168C943C90704D1891E016171
:1023E000204600F0BBF920680169C943090609D4F9
:1023F000C168C943090605D46FF080010161204618
:10240000FFF7BEFB20680169C943490609D4C168CA
:10241000C943490605D46FF040010161204600F030
:10242000EFF920680169C94389060BD4C168C94323
:10243000890607D46FF0200101612046BDE8704095
:10244000FFF79FBB70BD000070B586B00446142135
:102450006846FDF7EFFE2049206888423AD11F48C0
:102460000024016841F001010160016801F00101EF
:102470000591016841F002010160016801F002016B
:102480000591016841F0100101600068022500F02B
:102490001000059080200090CDE901540126CDE97F
:1024A000034669460E48FEF719FF03200090CDE968
:1024B0000154CDE9034669460A48FEF70FFF4FF481
:1024C00028500090CDE90154CDE9034669460648FD
:1024D000FEF704FF06B070BD000001403038024036
:1024E000000002400004024000100240704770B536
:1024F000044690F83C0000260D4601280FD001202C
:1025000084F83C006AB1042A1DD0082A2FD00C2A76
:102510003FD00126002084F83C00304670BD0220E8
:1025200070BD206800F0EAFC2068816941F0080174
:1025300081612068816921F00401816120688169DD
:102540002A69114311E0206800F008FD20688169C4
:1025500041F4006181612068816921F480618161B9
:10256000206881692A6941EA02218161D2E72068F5
:1025700000F02AFD2068C16941F00801C1612068AE
:10258000C16921F00401C1612068C1692A69114350
:1025900011E0206800F04CFD2068C16941F4006141
:1025A000C1612068C16921F48061C1612068C1698D
:1025B0002A6941EA0221C161ACE710B5040003D0E9
:1025C00094F83D0010B107E0012010BD002084F810
:1025D0003C00204600F01EF8022084F83D00211D3A
:1025E000206800F0FBFB012084F8460084F83E00E0
:1025F00084F83F0084F8400084F8410084F84200E9
:1026000084F8430084F8440084F8450084F83D00D1
:10261000002010BD7047704710B50446022249B132
:1026200004290ED0082913D094F84100012816D0AF
:10263000012010BD94F83E000128F9D184F83E2015
:102640000FE094F83F000128F2D184F83F2008E021
:1026500094F840000128EBD184F8402001E084F890
:1026600041200122206800F01DFC16492068164A0E
:10267000884201D0904203D1436C43F40043436449
:102680002068884213D0B0F1804F10D00F498842A3
:102690000DD00F4988420AD00E49884207D0904297
:1026A00005D00D49884202D00C49884204D1816886
:1026B00001F00701062903D0016841F00101016022
:1026C000002010BD00000140000401400004004053
:1026D00000080040000C004000400140001800408D
:1026E00030B504460D460068002200F0DBFB194BB4
:1026F00041F2111120688A10984202D0164B98427C
:1027000009D1036A0B4206D1036A134203D1436C19
:1027100023F4004343642068036A0B4206D1016A34
:10272000114203D1016821F00101016001203DB196
:10273000042D08D0082D09D084F84100002030BDB8
:1027400084F83E00FAE784F83F00F7E784F8400099
:10275000F4E7000000000140000401402DE9F041D1
:102760000168214CB1F1804F02D1A169491CA161DE
:1027700000681E49884235D11D4D6868401C68605C
:102780006888401C80B2688014282BD900266E808F
:10279000184F94ED000A384687ED000A94ED010ABF
:1027A00087ED010A01F07CFA97ED090ADFED120AC4
:1027B00020EE200A84ED030AB5EEC00AF1EE10FA0D
:1027C00006D201202870B1EE400A84ED030A00E031
:1027D0002E7010EE100AB0F17E5F03DB9FED070A4A
:1027E00084ED030ABDE8F0811C02002000100040C7
:1027F0001800002028000020CDCC4C3ECDCC4C3F12
:10280000704770B5040004D094F83D00002510B165
:1028100006E0012070BD84F83C50204600F022F80C
:10282000242084F83D002068C16821F40051C16073
:10283000204600F089FC2068016921F49041016183
:102840002068416921F02A0141612068C16841F492
:102850000051C1602564202084F83D0084F83E00CA
:10286000002070BD10B586B0044614216846FDF7FF
:10287000E1FC14492068884221D1134800210268F4
:1028800042F010020260006800F0100005900E484F
:102890001438026842F001020260006800F0010092
:1028A00005904FF4C06000900220CDE901010320A3
:1028B00003900720049069460448FEF70FFD06B018
:1028C00010BD0000001001404438024000000240EA
:1028D0002DE9F843044690F83D001F4616460D4684
:1028E00020284CD1C5B1BEB194F83C00012846D097
:1028F000012084F83C004FF00008C4F840802120FB
:1029000084F83D00FEF7E8FDA6848146E684A068D1
:10291000B0F5805F03D004E00120BDE8F8832069B2
:1029200028B12E465FF0000584F83C800EE00026BA
:10293000FAE78021204600F08DFCA0B9AEB116F870
:10294000010B21684860E08C401EE084E08C4B461F
:102950004FF0000200970028EBD14FF040012046D5
:1029600000F078FC30B10320D7E735F8020BC0F354
:102970000800E6E7202084F83D000020CDE7022093
:10298000CBE7000070B50A4D01212846FEF79EFDF9
:10299000440002212846FEF799FD2043440004210B
:1029A0002846FEF793FD204300F0070070BD0000AD
:1029B000000002400148FFF7E9B90000480100208B
:1029C000FEE700002DE9FF41002426480094019411
:1029D000029423490394016001254FF4803105617D
:1029E000C0E90114057680F820401F49C0E90A14A7
:1029F0000426C661C46080F830504561FEF7D9F9FD
:102A000008B1FEF712F903270097CDE90154694692
:102A10001448FEF725F908B1FEF707F90220CDE9C1
:102A2000006069460F48FEF71BF908B1FEF7FDF894
:102A30000520CDE9000769460A48FEF711F908B1FB
:102A4000FEF7F3F80620CDE9000669460548FEF7D3
:102A500007F9002801D0FEF7E8F8BDE8FF81000083
:102A600000200140580000200100000F094808B56F
:102A7000016841F4800101600068002200F48000D8
:102A8000009011463C20FEF795FDBDE808403C2033
:102A9000FEF782BD30380240114808B5016841F0A8
:102AA00080010160016801F080010091016841F03E
:102AB00001010160016801F001010091016841F02C
:102AC00002010160016801F002010091016841F01A
:102AD00010010160006800F01000009008BD0000C7
:102AE0003038024010B596B000240F941094119421
:102AF000129413941C2168461494FDF79BFB20212B
:102B000007A8FDF797FB31482F49C0E900142021A1
:102B1000816041F26801C0E9031444618461FFF7F8
:102B20006BFA08B1FEF781F84FF480500F900FA9AF
:102B30002648FFF703FB08B1FEF777F82348FFF7B5
:102B40003CFD08B1FEF771F8139413A91F481494C3
:102B5000FFF776F908B1FEF768F86020CDE90004C8
:102B6000029403940494059400226946174806943D
:102B7000FFF7BDFC08B1FEF758F804226946134878
:102B8000FFF7B5FC08B1FEF750F8082269460F4878
:102B9000FFF7ADFC08B1FEF748F84FF4006007906E
:102BA0004010CDE90804C0000A94CDE90B4007A904
:102BB00006480E94FEF7E6FF08B1FEF736F8034824
:102BC000FFF742FC16B010BD0000014000010020DC
:102BD00010B586B0002413480094019404944FF07B
:102BE00080410594C0E900144FF6FF71C0E902412D
:102BF000046184610F200290062003906946094811
:102C0000FFF722F808B1FEF710F85020CDE90404D0
:102C100004A90448FFF714F9002801D0FEF705F8CD
:102C200006B010BD480100201CB500240F480094D8
:102C30000D49019401605321C0E9011440F2E731CC
:102C4000C16080218161FFF7D7F908B1FDF7EDFF81
:102C50000094694605480194FFF7F2F8002801D076
:102C6000FDF7E3FF1CBD00000010004090010020B4
:102C70000C4810B50A4901604FF4E1314160002170
:102C800081600C22C160C0E904128161C161FFF75B
:102C9000B8FD002803D0BDE81040FDF7C6BF10BD49
:102CA00000100140D8010020FEE70000B0EE000A4D
:102CB000DFED0D0AB5EEC00A10B50A48F1EE10FAC4
:102CC00080EC020A01D8012100E0002107480170D0
:102CD00041700748FFF7F2F9BDE810400548FFF7DB
:102CE000EDB900001C0200200000000018000020C8
:102CF0009001002048010020FEE70000042220216E
:102D00000148FEF769BF00000001002070477047CE
:102D1000FEF7E8BB30B593B030216846FDF78AFA7C
:102D200014210CA8FDF786FA1D480025016841F022
:102D300080510160006800F08050119019480168CE
:102D400041F4804101600068022400F48040119049
:102D500001200090000401908001CDE9064008AAFE
:102D60000420A82182E813000B906846FEF73EFD80
:102D700008B172B6FEE70CA90F2081E831004FF4CC
:102D8000A0500F904FF48050109005210CA8FEF732
:102D900043FC002801D072B6FEE713B030BD00003E
:102DA00040380240007000400248016841F4700160
:102DB0000160704788ED00E00148FFF791BA00001C
:102DC000000100200148FFF78BBA000048010020F5
:102DD0000148FFF785BA000090010020F0B50268B5
:102DE000254C264D264E274F274B4FF0804CA042B6
:102DF00009D0604507D0A84205D0B04203D0B84200
:102E000001D0984204D122F0700E4A6842EA0E02C4
:102E1000A0421BD0604519D0A84217D0B04215D0AF
:102E2000B84213D0984211D0184DA8420ED0184D78
:102E3000A8420BD0174DA84208D0174DA84205D084
:102E4000164DA84202D0164DA84203D122F4407577
:102E5000CA682A434D6922F080022A4302608A68C8
:102E6000C2620A688262A04201D0984201D1096917
:102E7000016301214161F0BD0000014000040040F8
:102E800000080040000C00400004014000400140E8
:102E9000004401400048014000180040001C004070
:102EA0000020004010B501F01F030121046A994081
:102EB0008C430462016A9A401143016210BD10B54F
:102EC00001F01F030421046A99408C430462016AE3
:102ED0009A401143016210BD10B5846842EA032292
:102EE00024F47F440A432243826010BD826822F0AA
:102EF00070020A4342F0070181607047F0B5026A30
:102F000022F001020262036A42688469124E24F0D0
:102F100073050C682C4323F002058B682B430D4D81
:102F2000A84201D0B04205D123F00807CB683B434B
:102F300023F00403A84201D0B04205D14D6922F428
:102F4000407215438A692A4342608461496841633B
:102F50000362F0BD0000014000040140F0B5026AC8
:102F600022F010020262026A436884690D6824F448
:102F7000E64444EA05248D6822F0200242EA051264
:102F80000F4D104EA84201D0B04206D1CF6822F0BA
:102F9000800242EA071222F04002A84201D0B04269
:102FA00007D14D6923F4406343EA85038D6943EA01
:102FB000850343608461496881630262F0BD00005B
:102FC0000000014000040140F0B5026A22F4807262
:102FD0000262026A4368C46922F4007224F0730535
:102FE0000C68124E2C438D6842EA05220E4DA84211
:102FF00001D0B04206D1CF6822F4006242EA072233
:1030000022F48062A84201D0B04207D14D6923F476
:10301000405343EA05138D6943EA05134360C461D5
:103020004968C1630262F0BD000001400004014034
:1030300030B5026A22F480520262046A4268C369AF
:103040000D6823F4E64343EA05238D6824F4005415
:1030500044EA0534084DA84202D0084DA84204D1E4
:103060004D6922F4804242EA85124260C361496898
:103070000164046230BD0000000001400004014012
:1030800010B5036A046A24F001040462846924F020
:10309000F00444EA021423F00A020A438461026243
:1030A00010BD000070B5046A24F001040462846954
:1030B000056A154EB04214D0B0F1804F11D0134EB6
:1030C000B0420ED0124EB0420BD0124EB04208D0D9
:1030D000114EB04205D0114EB04202D0104EB04257
:1030E00003D124F00304144301E044F001041A075F
:1030F00024F0F00444EA126225F00A0301F00A0108
:1031000019438261016270BD00000140000400406B
:1031100000080040000C0040000401400040014055
:103120000018004010B5036A23F01003036283699E
:10313000046A23F4704343EA023224F0A00343EA12
:1031400001118261016210BD70B504460068016919
:10315000E26821F44051114301612169A068E269EC
:1031600008436169114308432168CA6849F20C6346
:103170009A430243CA6020684169A26921F4407100
:103180001143416131492068884202D03049884268
:1031900002D1FEF7EBFA01E0FEF7D8FAE26900236C
:1031A000192164253226B2F5004F626828D0A0FBB1
:1031B0000101930F9200FDF705F80146B0FBF5F011
:1031C0006FF01802504301EB800006EB0010B0FBDB
:1031D000F5F000F0F002B1FBF5F002EB0012B1FBEC
:1031E000F5F06FF01803584301EB800006EB001078
:1031F000B0FBF5F000F00F0021681044886070BD4E
:10320000A0FB010192185B41FCF7DCFF0146B0FB1B
:10321000F5F00201B1FBF5F06FF01803584301EB34
:10322000800006EBC000B0FBF5F000F0F80002EB08
:103230004002B1FBF5F0584301EB800006EBC00003
:10324000B0FBF5F000F00700D6E7000000100140E9
:10325000001401402DE9F041984617460E460446F9
:10326000069D27E0681C25D02DB1FEF735F9A0EBAF
:103270000800A8421ED920680C3050E8001F21F435
:10328000D07140E80012002AF5D12068143050E8CF
:10329000001F21F0010140E80012002AF5D1202092
:1032A00084F83D0084F83E00002084F83C000320B0
:1032B000BDE8F0812068006836EA000004D00020F4
:1032C000B842CFD00020F3E70120F9E7FEE7000085
:1032D0000FB4054B10B503A9044A029800F0EAF8B0
:1032E00010BC5DF814FB0000D13B00085400002026
:1032F0000907090E002804DB00F1E02080F8001423
:10330000704700F00F0000F1E02080F8141D7047B6
:1033100002E008C8121F08C1002AFAD1704770479E
:10332000002001E001C1121F002AFBD170470000FC
:103330002DE9FF5F82B00021DDE90430020DDDF8E8
:1033400040B0034318D044F61050A2F2FF3242437B
:103350001514119801281FD0A5EB0B00401C5FEA43
:10336000000A4FF000064E4FDFF83891B046504645
:1033700015D5CAF1000413E0119801244AA30128CD
:1033800001D16FEA0B010298119AC0E90031C0E93E
:10339000024206B0BDE8F09FCBF10000DFE7044633
:1033A0000021404A491842EB0450CDE9001012E0D8
:1033B000E00707D032463B4640464946FDF734F821
:1033C0008046894632463B4610461946FDF72CF8A2
:1033D00006460F466410002CEAD1DDE90401DDE960
:1033E0000023BAF1000F06DAFDF71EF842464B46FD
:1033F000FDF71AF805E0FDF789F842464B46FDF760
:1034000085F804460E460022284BFDF707F903D83D
:103410004FF0FF30014607E00022254B20463146A1
:10342000FCF75BFFFDF7E1F8102409E0002C0ADB54
:103430000A220023FCF7C6FE039B30321A55641E95
:1034400050EA0102F2D1641C039AC4F1110314443E
:10345000119A012A03D0012208430DD10AE0084342
:1034600004D000204FF0110B119072E7A3EB0B0575
:103470006D1E0DE05B4504DD4FF0000205F1010516
:1034800004E003DA4FF00002A5F10105002AECD0B8
:1034900002981199C0E90231C0E9004579E70000BE
:1034A000000014400000F03F300000000000F04336
:1034B0000000E03F2DE9FF4F95B09A46884606464A
:1034C0000025EEE1252877D100242746F94A01217D
:1034D000039400E0044316F8013F203B01FA03F097
:1034E0001042F7D130782A2811D06FF02F033078AE
:1034F000A0F13002092A16D8039A44F0020402EB24
:10350000820203EB42021044761C0390EFE758F866
:10351000042B0392002A03DA504244F4005403902F
:1035200044F00204761C30782E2816D116F8010FCC
:1035300044F004042A280DD06FF02F023078A0F157
:103540003003092B09D807EB870302EB4303C718A5
:10355000761CF3E758F8047B761C30786C280FD083
:1035600006DC4C2817D068280DD06A2814D104E056
:10357000742810D07A280FD10DE044F400140AE02A
:1035800044F4801401E044F440147278824202D181
:1035900004F58014761C761C307866280BD013DC7A
:1035A000582877D009DC002875D04528F6D0462861
:1035B000F4D047281AD193E118E0632835D0642865
:1035C00079D0652812D18BE1702873D008DC672888
:1035D000F1D069286FD06E280DD06F2806D1ACE0ED
:1035E00073282CD0752874D0782853D05246179958
:1035F00090476D1C54E1C4F30250022809D00328FF
:103600000DD0D8F8001004280DD00D6008F1040882
:1036100046E1D8F80010EA17C1E90052F6E7D8F8F9
:1036200000100D80F2E70D70F0E718F8041B8DF81C
:10363000001000208DF80100EB46012003E058F84F
:1036400004BB4FF0FF3061074FF0000102D40DE0E2
:1036500009F101018946B9420FDA8145F8DB1BF80F
:1036600009100029F4D108E009F1010189468142DD
:10367000FADB1BF809100029F6D103985346A0EB9A
:10368000090721463846179A00F080FA284400EBD3
:10369000090507E044E008E10DE01BF8010B524684
:1036A00017999047B9F10109F7D253462146384698
:1036B000179AF2E039E00A21C4F302524FF0000BEE
:1036C0000091022A06D058F8040BC117032A09D02A
:1036D0000AE023E008F1070020F00702F2E8020107
:1036E000904605E000B2C117042A01D140B2C117CB
:1036F000002906DA0A460021404261EB02012D2230
:1037000002E0220504D52B228DF80420012203E0DB
:10371000E20701D02022F7E7914657E00A2100E0B6
:1037200010214FF0000B00910BE010214FF0000B27
:1037300044F004040827009103E008204FF0000B38
:103740000090C4F30252022A05D058F8040B00215D
:10375000032A08D008E008F1070020F00702F2E889
:103760000201904603E080B2042A00D1C0B24FF0BB
:10377000000922072AD53278702A07D0DDF800C068
:103780008CF0100C5CEA0B0C05D00EE040228DF89A
:103790000420012208E050EA010306D030238DF80E
:1037A00004308DF8052002229146009B83F0080327
:1037B00053EA0B030AD150EA010201D1620705D591
:1037C00030228DF804204FF001097F1E3278582AEC
:1037D00004D039A20C920CAA02920BE03BA2F9E7AA
:1037E0005B46009AFCF7EEFC0C9B9B5C029A521E17
:1037F0000292137050EA0102F2D1029804A9081A49
:1038000000F1200B600702D524F4803400E001278A
:103810005F4502DDA7EB0B0000E0002000EB0B0191
:10382000009003984944401A0390E00306D453469D
:103830002146179A039800F0A9F90544002706E0ED
:1038400001A85246C05D179990476D1C7F1C4F45DB
:10385000F6DBE0030CD553462146179A039800F097
:1038600095F9054404E030205246179990476D1CA5
:103870000099481E00900029F5DC08E002980299A2
:1038800052460078491C0291179990476D1CBBF174
:103890000001ABF1010BF1DC5BE100F065F90544DF
:1038A000761C307800287FF40DAE19B02846BDE8AC
:1038B000F08F0000092801003031323334353637BB
:1038C000383961626364656600000000303132336C
:1038D000343536373839414243444546000000000C
:1038E000600700D4062708F1070020F00700F0E881
:1038F0000223804603F0004C5FEA0C0001D097A041
:1039000009E0200501D596A005E0E00701D095A0CB
:1039100001E0AFF24C001390307823F000436528AB
:103920000CD006DC452809D046281DD047287FD179
:103930003BE0662818D067287AD136E00021112FA5
:1039400001DB112000E0781CCDE9000104A90CA8DE
:10395000FFF7EEFCDDE90D010C9A4FF0000B07F1CB
:103960000109109200914EE04FF000400097CDE920
:10397000011004A90CA8FFF7DBFCDDE90D020C9B8C
:103980000F994FF0000B91461093009211B9791CDA
:1039900000EB0109B7EB090003D4C0F1FF3B07F1CD
:1039A0000109A9EB0700019042E0012F00DA01278D
:1039B0000021112F01DD112000E03846CDE9000182
:1039C00004A90CA8FFF7B4FCDDE90D010C9A0091E5
:1039D0004FF0000BB946109221070FD4009A4A45C8
:1039E00003DA914601E0A9F10109B9F1010F05DD02
:1039F000109AA9F10101515C3029F4D0B84202DAE1
:103A000010F1040F03DA0121CDE9011010E00028C4
:103A100003DC8344A9EB000102E0411C494500DDC1
:103A20008946A0EB0B00401C01904FF00040029033
:103A3000200705D40198484502DB4FF0FF30019084
:103A400000208DF84B0002980DF14B07B0F1004FAC
:103A500025D002200C902B200D90029800280CDA23
:103A6000404202902D200D9007E00A210298FCF7B9
:103A7000FFFB3031029007F8011D0C99481E0C9095
:103A80000029F2DC02980028EFD1791E0D98087009
:103A9000307800F0200040F0450007F8020D11A832
:103AA000C01BC01D02901398007800B1012000EBEC
:103AB0000901019801EBE071029801440398401A52
:103AC000401E0390E00306D453462146179A0398FC
:103AD00000F05CF805441398007818B15246179925
:103AE00090476D1CE00323D553462146179A03984F
:103AF00000F04CF805441BE0BBF1000F07DB009819
:103B0000584504DD1098179910F80B0001E017993B
:103B100030205246904701980BF1010B401E05F1F1
:103B20000105019004D12E205246179990476D1C33
:103B3000B9F10001A9F10109DEDC05E017F8010B7C
:103B40005246179990476D1C0299481E0290002911
:103B5000F4DC53462146179A03989EE62D00000098
:103B60002B000000200000002DE9F0410446002554
:103B70001E461746880404D405E039462020B04785
:103B80006D1C641EF9D52846BDE8F0812DE9F04191
:103B9000044600251E469046C80301D5302700E0A4
:103BA0002027880404D505E041463846B0476D1CFF
:103BB000641EF9D52846BDE8F081000004220249C0
:103BC0000248FDF76FB900002000002058000020D7
:103BD00013B54FF6FF73012269460248FEF778FEDF
:103BE00000981CBDD801002008B5FDF783FCFFF745
:103BF00091F8FEF751FFFEF739FFFEF773FFFEF76E
:103C0000E7FFFFF735F8FFF70FF8FEF7DBFE9FED54
:103C1000160AFCF79DFD154880ED000A10EE100A0B
:103C2000FCF713FB41EC100B11A053EC102BFFF72A
:103C30004FFBFFF7C3FFFFF761F8FFF737F8FEF719
:103C4000B9FEFCF75DFF104D104C002628683228A5
:103C5000FCD32E60E0880090A388628821880CA0A5
:103C6000FFF736FBF2E70000920A063F0000002053
:103C7000465055207465737420726573756C743A80
:103C80002025660D0A0000001C00002020000020F6
:103C900025642C2025642C2025642C2025640A0012
:103CA00090EC020A30EE600A80ED020AD0ED070ABD
:103CB00070EE800AC0ED070A90ED081AF4EEC10A12
:103CC000F1EE10FA06DCB1EE411AF4EEC10AF1EEA3
:103CD00010FA01D280ED071AD0ED040A90ED051A12
:103CE000D0ED071A60EE800A41EE210A90ED031A2A
:103CF000D0ED061A30EE411A41EE810AC0ED090AF4
:103D000090ED0A1AF4EEC10AF1EE10FA06DCB1EEFB
:103D1000411AF4EEC10AF1EE10FA01D280ED091A4F
:103D200080ED030A7047000610160006101600000A
:103D3000000000000000010203040607080900005B
:103D40000000010203040005030106040200000054
:103D500000000000920E493CB10AC93C2BC3163D3D
:103D60002EFB483D752B7B3D04A9963D80B6AF3DAB
:103D700036BDC83D2FBCE13D73B2FA3D87CF093E49
:103D80008340163EB5AB223EA2102F3ECF6E3B3E87
:103D9000C2C5473E0115543E135C603E7F9A6C3E9F
:103DA000CCCF783EC07D823E938E883E229A8E3E56
:103DB00032A0943E86A09A3EE59AA03E128FA63E7F
:103DC000D47CAC3EEF63B23E2A44B83E491DBE3EB1
:103DD00015EFC33E53B9C93ECA7BCF3E4136D53EEF
:103DE00080E8DA3E4F92E03E7533E63EBBCBEB3ED9
:103DF000EA5AF13ECBE0F63E275DFC3EE4E7003FA9
:103E00003D9C033F824B063F9BF5083F6B9A0B3F5F
:103E1000DA390E3FCDD3103F2A68133FD9F6153F4C
:103E2000C07F183FC6021B3FD17F1D3FCBF61F3F0F
:103E30009967223F25D2243F5636273F1594293FC4
:103E40004AEB2B3FDE3B2E3FBB85303FC9C8323F9C
:103E5000F304353F233A373F4268393F3B8F3B3FBE
:103E6000F9AE3D3F67C73F3F70D8413F01E2433F56
:103E700003E4453F65DE473F12D1493FF8BB4B3F66
:103E8000029F4D3F207A4F3F3D4D513F4918533FD0
:103E900031DB543FE595563F5348583F6AF2593F4E
:103EA0001A945B3F532D5D3F05BE5E3F2146603F48
:103EB00097C5613F5A3C633F59AA643F880F663FEC
:103EC000D86B673F3CBF683FA7096A3F0C4B6B3F0D
:103ED0005E836C3F93B26D3F9ED86E3F73F56F3F2C
:103EE0000809713F5213723F4714733FDD0B743F53
:103EF0000BFA743FC6DE753F07BA763FC58B773F36
:103F0000F853783F9812793F9DC7793F02737A3F03
:103F1000BE147B3FCDAC7B3F283B7C3FC9BF7C3F81
:103F2000AC3A7D3FCCAB7D3F23137E3FB0707E3FEC
:103F30006DC47E3F580E7F3F6D4E7F3FAB847F3F09
:103F40000FB17F3F97D37F3F43EC7F3F11FB7F3F14
:103F50000000803F11FB7F3F43EC7F3F97D37F3FC3
:103F60000FB17F3FAB847F3F6D4E7F3F580E7F3F49
:103F70006DC47E3FB0707E3F23137E3FCCAB7D3F50
:103F8000AC3A7D3FC9BF7C3F283B7C3FCDAC7B3FFB
:103F9000BE147B3F02737A3F9DC7793F9812793FE9
:103FA000F853783FC58B773F07BA763FC6DE753F3B
:103FB0000BFA743FDD0B743F4714733F5213723F8B
:103FC0000809713F73F56F3F9ED86E3F93B26D3F06
:103FD0005E836C3F0C4B6B3FA7096A3F3CBF683F59
:103FE000D86B673F880F663F59AA643F5A3C633FCE
:103FF00097C5613F2146603F05BE5E3F532D5D3F43
:104000001A945B3F6AF2593F5348583FE595563F33
:1040100031DB543F4918533F3D4D513F207A4F3FCC
:10402000029F4D3FF8BB4B3F12D1493F65DE473FF2
:1040300003E4453F01E2433F70D8413F67C73F3F3C
:10404000F9AE3D3F3B8F3B3F4268393F233A373F14
:10405000F304353FC9C8323FBB85303FDE3B2E3FBE
:104060004AEB2B3F1594293F5636273F25D2243F54
:104070009967223FCBF61F3FD17F1D3FC6021B3FF2
:10408000C07F183FD9F6153F2A68133FCDD3103FA4
:10409000DA390E3F6B9A0B3F9BF5083F824B063F88
:1040A0003D9C033FE4E7003F275DFC3ECBE0F63E4E
:1040B000EA5AF13EBBCBEB3E7533E63E4F92E03E13
:1040C00080E8DA3E4136D53ECA7BCF3E53B9C93E81
:1040D00015EFC33E491DBE3E2A44B83EEF63B23ED3
:1040E000D47CAC3E128FA63EE59AA03E86A09A3EB6
:1040F00032A0943E229A8E3E938E883EC07D823EB0
:10410000CCCF783E7F9A6C3E135C603E0115543EE6
:10411000C2C5473ECF6E3B3EA2102F3EB5AB223EFE
:104120008340163E87CF093E73B2FA3D2FBCE13D76
:1041300036BDC83D80B6AF3D04A9963D752B7B3D8D
:104140002EFB483D2BC3163DB10AC93C920E493C9B
:1041500000000000920E49BCB10AC9BC2BC316BDB9
:104160002EFB48BD752B7BBD04A996BD80B6AFBDA7
:1041700036BDC8BD2FBCE1BD73B2FABD87CF09BE45
:10418000834016BEB5AB22BEA2102FBECF6E3BBE83
:10419000C2C547BE011554BE135C60BE7F9A6CBE9B
:1041A000CCCF78BEC07D82BE938E88BE229A8EBE52
:1041B00032A094BE86A09ABEE59AA0BE128FA6BE7B
:1041C000D47CACBEEF63B2BE2A44B8BE491DBEBEAD
:1041D00015EFC3BE53B9C9BECA7BCFBE4136D5BEEB
:1041E00080E8DABE4F92E0BE7533E6BEBBCBEBBED5
:1041F000EA5AF1BECBE0F6BE275DFCBEE4E700BFA5
:104200003D9C03BF824B06BF9BF508BF6B9A0BBF5B
:10421000DA390EBFCDD310BF2A6813BFD9F615BF48
:10422000C07F18BFC6021BBFD17F1DBFCBF61FBF0B
:10423000996722BF25D224BF563627BF159429BFC0
:104240004AEB2BBFDE3B2EBFBB8530BFC9C832BF98
:10425000F30435BF233A37BF426839BF3B8F3BBFBA
:10426000F9AE3DBF67C73FBF70D841BF01E243BF52
:1042700003E445BF65DE47BF12D149BFF8BB4BBF62
:10428000029F4DBF207A4FBF3D4D51BF491853BFCC
:1042900031DB54BFE59556BF534858BF6AF259BF4A
:1042A0001A945BBF532D5DBF05BE5EBF214660BF44
:1042B00097C561BF5A3C63BF59AA64BF880F66BFE8
:1042C000D86B67BF3CBF68BFA7096ABF0C4B6BBF09
:1042D0005E836CBF93B26DBF9ED86EBF73F56FBF28
:1042E000080971BF521372BF471473BFDD0B74BF4F
:1042F0000BFA74BFC6DE75BF07BA76BFC58B77BF32
:10430000F85378BF981279BF9DC779BF02737ABFFF
:10431000BE147BBFCDAC7BBF283B7CBFC9BF7CBF7D
:10432000AC3A7DBFCCAB7DBF23137EBFB0707EBFE8
:104330006DC47EBF580E7FBF6D4E7FBFAB847FBF05
:104340000FB17FBF97D37FBF43EC7FBF11FB7FBF10
:10435000000080BF11FB7FBF43EC7FBF97D37FBFBF
:104360000FB17FBFAB847FBF6D4E7FBF580E7FBF45
:104370006DC47EBFB0707EBF23137EBFCCAB7DBF4C
:10438000AC3A7DBFC9BF7CBF283B7CBFCDAC7BBFF7
:10439000BE147BBF02737ABF9DC779BF981279BFE5
:1043A000F85378BFC58B77BF07BA76BFC6DE75BF37
:1043B0000BFA74BFDD0B74BF471473BF521372BF87
:1043C000080971BF73F56FBF9ED86EBF93B26DBF02
:1043D0005E836CBF0C4B6BBFA7096ABF3CBF68BF55
:1043E000D86B67BF880F66BF59AA64BF5A3C63BFCA
:1043F00097C561BF214660BF05BE5EBF532D5DBF3F
:104400001A945BBF6AF259BF534858BFE59556BF2F
:1044100031DB54BF491853BF3D4D51BF207A4FBFC8
:10442000029F4DBFF8BB4BBF12D149BF65DE47BFEE
:1044300003E445BF01E243BF70D841BF67C73FBF38
:10444000F9AE3DBF3B8F3BBF426839BF233A37BF10
:10445000F30435BFC9C832BFBB8530BFDE3B2EBFBA
:104460004AEB2BBF159429BF563627BF25D224BF50
:10447000996722BFCBF61FBFD17F1DBFC6021BBFEE
:10448000C07F18BFD9F615BF2A6813BFCDD310BFA0
:10449000DA390EBF6B9A0BBF9BF508BF824B06BF84
:1044A0003D9C03BFE4E700BF275DFCBECBE0F6BE4A
:1044B000EA5AF1BEBBCBEBBE7533E6BE4F92E0BE0F
:1044C00080E8DABE4136D5BECA7BCFBE53B9C9BE7D
:1044D00015EFC3BE491DBEBE2A44B8BEEF63B2BECF
:1044E000D47CACBE128FA6BEE59AA0BE86A09ABEB2
:1044F00032A094BE229A8EBE938E88BEC07D82BEAC
:10450000CCCF78BE7F9A6CBE135C60BE011554BEE2
:10451000C2C547BECF6E3BBEA2102FBEB5AB22BEFA
:10452000834016BE87CF09BE73B2FABD2FBCE1BD72
:1045300036BDC8BD80B6AFBD04A996BD752B7BBD89
:104540002EFB48BD2BC316BDB10AC9BC920E49BC97
:1045500000000080744500080000002058000000A2
:1045600010330008CC45000858000020E00500008A
:1045700020330008000000000100000010000000CF
:10458000000000000024F400000000000100000012
:10459000000000000000000000000000000000001B
:1045A000000000000000000000000000CDCC4C3FE7
:1045B0005C8F823E00000000000000000000804090
:0C45C000000000000000B04000000000FF
:040000050800018965
:00000001FF
